{
  "_format": "hh-sol-artifact-1",
  "contractName": "StakingContractV3",
  "sourceName": "contracts/teamDao/v3/stakingReward.sol",
  "abi": [
    {
      "inputs": [
        {
          "internalType": "address",
          "name": "_stakingToken",
          "type": "address"
        },
        {
          "internalType": "address",
          "name": "_treasury",
          "type": "address"
        }
      ],
      "stateMutability": "nonpayable",
      "type": "constructor"
    },
    {
      "anonymous": false,
      "inputs": [
        {
          "indexed": true,
          "internalType": "address",
          "name": "user",
          "type": "address"
        },
        {
          "indexed": true,
          "internalType": "address",
          "name": "referrer",
          "type": "address"
        }
      ],
      "name": "BindReferrer",
      "type": "event"
    },
    {
      "anonymous": false,
      "inputs": [
        {
          "indexed": true,
          "internalType": "address",
          "name": "previousOwner",
          "type": "address"
        },
        {
          "indexed": true,
          "internalType": "address",
          "name": "newOwner",
          "type": "address"
        }
      ],
      "name": "OwnershipTransferred",
      "type": "event"
    },
    {
      "anonymous": false,
      "inputs": [
        {
          "indexed": true,
          "internalType": "address",
          "name": "referrer",
          "type": "address"
        },
        {
          "indexed": true,
          "internalType": "address",
          "name": "lower",
          "type": "address"
        },
        {
          "indexed": false,
          "internalType": "uint256",
          "name": "generation",
          "type": "uint256"
        },
        {
          "indexed": false,
          "internalType": "uint256",
          "name": "amount",
          "type": "uint256"
        }
      ],
      "name": "ReferralReward",
      "type": "event"
    },
    {
      "anonymous": false,
      "inputs": [
        {
          "indexed": true,
          "internalType": "address",
          "name": "user",
          "type": "address"
        },
        {
          "indexed": false,
          "internalType": "uint256",
          "name": "amount",
          "type": "uint256"
        }
      ],
      "name": "RewardClaimed",
      "type": "event"
    },
    {
      "anonymous": false,
      "inputs": [
        {
          "indexed": true,
          "internalType": "address",
          "name": "user",
          "type": "address"
        },
        {
          "indexed": false,
          "internalType": "uint256",
          "name": "amount",
          "type": "uint256"
        }
      ],
      "name": "Staked",
      "type": "event"
    },
    {
      "anonymous": false,
      "inputs": [
        {
          "indexed": true,
          "internalType": "address",
          "name": "user",
          "type": "address"
        },
        {
          "indexed": false,
          "internalType": "uint256",
          "name": "amount",
          "type": "uint256"
        }
      ],
      "name": "StakedUpdate",
      "type": "event"
    },
    {
      "inputs": [],
      "name": "MIN_STAKE",
      "outputs": [
        {
          "internalType": "uint256",
          "name": "",
          "type": "uint256"
        }
      ],
      "stateMutability": "view",
      "type": "function"
    },
    {
      "inputs": [
        {
          "internalType": "address",
          "name": "_referrer",
          "type": "address"
        }
      ],
      "name": "bindReferrer",
      "outputs": [],
      "stateMutability": "nonpayable",
      "type": "function"
    },
    {
      "inputs": [],
      "name": "claimRewards",
      "outputs": [],
      "stateMutability": "nonpayable",
      "type": "function"
    },
    {
      "inputs": [],
      "name": "dailyRewardRate",
      "outputs": [
        {
          "internalType": "uint256",
          "name": "",
          "type": "uint256"
        }
      ],
      "stateMutability": "view",
      "type": "function"
    },
    {
      "inputs": [
        {
          "internalType": "address",
          "name": "_user",
          "type": "address"
        }
      ],
      "name": "getTotalPendingRewards",
      "outputs": [
        {
          "internalType": "uint256",
          "name": "",
          "type": "uint256"
        }
      ],
      "stateMutability": "view",
      "type": "function"
    },
    {
      "inputs": [
        {
          "internalType": "address",
          "name": "_user",
          "type": "address"
        }
      ],
      "name": "getUserInfo",
      "outputs": [
        {
          "internalType": "uint256",
          "name": "pendingRewards",
          "type": "uint256"
        },
        {
          "internalType": "uint256",
          "name": "claimedRewards",
          "type": "uint256"
        },
        {
          "internalType": "uint256",
          "name": "totalRewards",
          "type": "uint256"
        },
        {
          "internalType": "uint256",
          "name": "rewardLimit",
          "type": "uint256"
        }
      ],
      "stateMutability": "view",
      "type": "function"
    },
    {
      "inputs": [
        {
          "internalType": "address",
          "name": "_user",
          "type": "address"
        }
      ],
      "name": "isInBlacklist",
      "outputs": [
        {
          "internalType": "bool",
          "name": "",
          "type": "bool"
        }
      ],
      "stateMutability": "view",
      "type": "function"
    },
    {
      "inputs": [],
      "name": "maxGeneration",
      "outputs": [
        {
          "internalType": "uint256",
          "name": "",
          "type": "uint256"
        }
      ],
      "stateMutability": "view",
      "type": "function"
    },
    {
      "inputs": [
        {
          "internalType": "address",
          "name": "_user",
          "type": "address"
        },
        {
          "internalType": "uint256",
          "name": "amount",
          "type": "uint256"
        }
      ],
      "name": "migrateStake",
      "outputs": [],
      "stateMutability": "nonpayable",
      "type": "function"
    },
    {
      "inputs": [],
      "name": "minClaimAmount",
      "outputs": [
        {
          "internalType": "uint256",
          "name": "",
          "type": "uint256"
        }
      ],
      "stateMutability": "view",
      "type": "function"
    },
    {
      "inputs": [],
      "name": "minDirectFriendsNums",
      "outputs": [
        {
          "internalType": "uint256",
          "name": "",
          "type": "uint256"
        }
      ],
      "stateMutability": "view",
      "type": "function"
    },
    {
      "inputs": [],
      "name": "owner",
      "outputs": [
        {
          "internalType": "address",
          "name": "",
          "type": "address"
        }
      ],
      "stateMutability": "view",
      "type": "function"
    },
    {
      "inputs": [
        {
          "internalType": "uint256",
          "name": "amount",
          "type": "uint256"
        }
      ],
      "name": "refill",
      "outputs": [],
      "stateMutability": "nonpayable",
      "type": "function"
    },
    {
      "inputs": [],
      "name": "renounceOwnership",
      "outputs": [],
      "stateMutability": "nonpayable",
      "type": "function"
    },
    {
      "inputs": [
        {
          "internalType": "uint256",
          "name": "",
          "type": "uint256"
        }
      ],
      "name": "rewardRates",
      "outputs": [
        {
          "internalType": "uint256",
          "name": "",
          "type": "uint256"
        }
      ],
      "stateMutability": "view",
      "type": "function"
    },
    {
      "inputs": [
        {
          "internalType": "address",
          "name": "_user",
          "type": "address"
        },
        {
          "internalType": "bool",
          "name": "_isBlack",
          "type": "bool"
        }
      ],
      "name": "setBlacklist",
      "outputs": [],
      "stateMutability": "nonpayable",
      "type": "function"
    },
    {
      "inputs": [
        {
          "internalType": "uint256",
          "name": "newRate",
          "type": "uint256"
        }
      ],
      "name": "setDailyRewardRate",
      "outputs": [],
      "stateMutability": "nonpayable",
      "type": "function"
    },
    {
      "inputs": [
        {
          "internalType": "uint256",
          "name": "generation",
          "type": "uint256"
        }
      ],
      "name": "setMaxGeneration",
      "outputs": [],
      "stateMutability": "nonpayable",
      "type": "function"
    },
    {
      "inputs": [
        {
          "internalType": "uint256",
          "name": "_minClaimAmount",
          "type": "uint256"
        }
      ],
      "name": "setMinClaimAmount",
      "outputs": [],
      "stateMutability": "nonpayable",
      "type": "function"
    },
    {
      "inputs": [
        {
          "internalType": "uint256",
          "name": "directNums",
          "type": "uint256"
        }
      ],
      "name": "setMinDirectFriendsNums",
      "outputs": [],
      "stateMutability": "nonpayable",
      "type": "function"
    },
    {
      "inputs": [
        {
          "internalType": "uint256",
          "name": "index",
          "type": "uint256"
        },
        {
          "internalType": "uint256",
          "name": "newRate",
          "type": "uint256"
        }
      ],
      "name": "setRewardRate",
      "outputs": [],
      "stateMutability": "nonpayable",
      "type": "function"
    },
    {
      "inputs": [
        {
          "internalType": "address",
          "name": "_treasury",
          "type": "address"
        }
      ],
      "name": "setTreasury",
      "outputs": [],
      "stateMutability": "nonpayable",
      "type": "function"
    },
    {
      "inputs": [
        {
          "internalType": "uint256",
          "name": "amount",
          "type": "uint256"
        }
      ],
      "name": "stake",
      "outputs": [],
      "stateMutability": "nonpayable",
      "type": "function"
    },
    {
      "inputs": [],
      "name": "stakingToken",
      "outputs": [
        {
          "internalType": "contract IERC20",
          "name": "",
          "type": "address"
        }
      ],
      "stateMutability": "view",
      "type": "function"
    },
    {
      "inputs": [
        {
          "internalType": "address",
          "name": "newOwner",
          "type": "address"
        }
      ],
      "name": "transferOwnership",
      "outputs": [],
      "stateMutability": "nonpayable",
      "type": "function"
    },
    {
      "inputs": [],
      "name": "treasury",
      "outputs": [
        {
          "internalType": "address",
          "name": "",
          "type": "address"
        }
      ],
      "stateMutability": "view",
      "type": "function"
    },
    {
      "inputs": [
        {
          "internalType": "address",
          "name": "",
          "type": "address"
        }
      ],
      "name": "updateInvitingRecords",
      "outputs": [
        {
          "internalType": "bool",
          "name": "",
          "type": "bool"
        }
      ],
      "stateMutability": "view",
      "type": "function"
    },
    {
      "inputs": [
        {
          "internalType": "address",
          "name": "_referrer",
          "type": "address"
        }
      ],
      "name": "updateReferrer",
      "outputs": [],
      "stateMutability": "nonpayable",
      "type": "function"
    },
    {
      "inputs": [
        {
          "internalType": "address",
          "name": "",
          "type": "address"
        }
      ],
      "name": "users",
      "outputs": [
        {
          "internalType": "uint256",
          "name": "totalStaked",
          "type": "uint256"
        },
        {
          "internalType": "uint256",
          "name": "allStaked",
          "type": "uint256"
        },
        {
          "internalType": "uint256",
          "name": "totalRewards",
          "type": "uint256"
        },
        {
          "internalType": "uint256",
          "name": "claimedRewards",
          "type": "uint256"
        },
        {
          "internalType": "address",
          "name": "referrer",
          "type": "address"
        },
        {
          "internalType": "uint256",
          "name": "lastStakeTime",
          "type": "uint256"
        },
        {
          "internalType": "uint256",
          "name": "lastRewardTime",
          "type": "uint256"
        },
        {
          "internalType": "uint256",
          "name": "directFriendNums",
          "type": "uint256"
        }
      ],
      "stateMutability": "view",
      "type": "function"
    },
    {
      "inputs": [],
      "name": "withdrawBalance",
      "outputs": [],
      "stateMutability": "nonpayable",
      "type": "function"
    }
  ],
  "bytecode": "0x6080604052604051806101e001604052806107d061ffff16815260200161019061ffff16815260200161019061ffff16815260200161012c61ffff16815260200161012c61ffff16815260200161012c61ffff16815260200160c861ffff16815260200160c861ffff16815260200160c861ffff168152602001606461ffff168152602001606461ffff168152602001606461ffff168152602001606461ffff168152602001606461ffff168152602001606461ffff16815250600390600f620000cb92919062000298565b506101f460125568056bc75e2d63100000601555348015620000ec57600080fd5b5060405162003c3e38038062003c3e83398181016040528101906200011291906200036c565b6200013262000126620001cc60201b60201c565b620001d460201b60201c565b81600160006101000a81548173ffffffffffffffffffffffffffffffffffffffff021916908373ffffffffffffffffffffffffffffffffffffffff16021790555080600260006101000a81548173ffffffffffffffffffffffffffffffffffffffff021916908373ffffffffffffffffffffffffffffffffffffffff160217905550600f60138190555060006014819055505050620003b3565b600033905090565b60008060009054906101000a900473ffffffffffffffffffffffffffffffffffffffff169050816000806101000a81548173ffffffffffffffffffffffffffffffffffffffff021916908373ffffffffffffffffffffffffffffffffffffffff1602179055508173ffffffffffffffffffffffffffffffffffffffff168173ffffffffffffffffffffffffffffffffffffffff167f8be0079c531659141344cd1fd0a4f28419497f9722a3daafe3b4186f6b6457e060405160405180910390a35050565b82600f8101928215620002d0579160200282015b82811115620002cf578251829061ffff16905591602001919060010190620002ac565b5b509050620002df9190620002e3565b5090565b5b80821115620002fe576000816000905550600101620002e4565b5090565b600080fd5b600073ffffffffffffffffffffffffffffffffffffffff82169050919050565b6000620003348262000307565b9050919050565b620003468162000327565b81146200035257600080fd5b50565b60008151905062000366816200033b565b92915050565b6000806040838503121562000386576200038562000302565b5b6000620003968582860162000355565b9250506020620003a98582860162000355565b9150509250929050565b61387b80620003c36000396000f3fe608060405234801561001057600080fd5b50600436106101da5760003560e01c8063922fc24811610104578063c1e3d2dd116100a2578063f0f4426011610071578063f0f44260146104fd578063f2caeb1e14610519578063f2fde38b14610549578063f503970a14610565576101da565b8063c1e3d2dd14610489578063ca9d07ba146104a7578063cb1c2b5c146104c3578063ebd2c7d9146104e1576101da565b8063a87430ba116100de578063a87430ba146103e8578063a8c478ba1461041f578063adc25bde1461044f578063bdcd9c801461046d576101da565b8063922fc248146103805780639caf9b001461039c578063a694fc3a146103cc576101da565b80635fd8c7101161017c57806372f702f31161014b57806372f702f3146102f85780637346f65c146103165780638da5cb5b146103465780638df2517014610364576101da565b80635fd8c7101461029357806361d027b31461029d5780636386c1c7146102bb578063715018a6146102ee576101da565b80633462e0a8116101b85780633462e0a814610235578063372500ab14610251578063456173c51461025b5780634a54e5ce14610277576101da565b806304f618cb146101df5780630f67628e146101fb578063153b0d1e14610219575b600080fd5b6101f960048036038101906101f49190612986565b610583565b005b610203610910565b60405161021091906129cc565b60405180910390f35b610233600480360381019061022e9190612a1f565b610916565b005b61024f600480360381019061024a9190612a8b565b610979565b005b610259610a26565b005b61027560048036038101906102709190612acb565b610bfd565b005b610291600480360381019061028c9190612acb565b610c53565b005b61029b610c65565b005b6102a5610d57565b6040516102b29190612b07565b60405180910390f35b6102d560048036038101906102d09190612986565b610d7d565b6040516102e59493929190612b22565b60405180910390f35b6102f6610ed1565b005b610300610ee5565b60405161030d9190612bc6565b60405180910390f35b610330600480360381019061032b9190612986565b610f0b565b60405161033d9190612bf0565b60405180910390f35b61034e610f2b565b60405161035b9190612b07565b60405180910390f35b61037e60048036038101906103799190612acb565b610f54565b005b61039a60048036038101906103959190612acb565b610faa565b005b6103b660048036038101906103b19190612986565b610fbc565b6040516103c39190612bf0565b60405180910390f35b6103e660048036038101906103e19190612acb565b611012565b005b61040260048036038101906103fd9190612986565b611282565b604051610416989796959493929190612c0b565b60405180910390f35b61043960048036038101906104349190612986565b6112ea565b60405161044691906129cc565b60405180910390f35b610457611457565b60405161046491906129cc565b60405180910390f35b61048760048036038101906104829190612c89565b61145d565b005b6104916116d6565b60405161049e91906129cc565b60405180910390f35b6104c160048036038101906104bc9190612acb565b6116dc565b005b6104cb61172e565b6040516104d891906129cc565b60405180910390f35b6104fb60048036038101906104f69190612986565b61173b565b005b61051760048036038101906105129190612986565b611bad565b005b610533600480360381019061052e9190612acb565b611bf9565b60405161054091906129cc565b60405180910390f35b610563600480360381019061055e9190612986565b611c14565b005b61056d611c97565b60405161057a91906129cc565b60405180910390f35b600073ffffffffffffffffffffffffffffffffffffffff168173ffffffffffffffffffffffffffffffffffffffff16036105f2576040517f08c379a00000000000000000000000000000000000000000000000000000000081526004016105e990612d26565b60405180910390fd5b600073ffffffffffffffffffffffffffffffffffffffff16601860003373ffffffffffffffffffffffffffffffffffffffff1673ffffffffffffffffffffffffffffffffffffffff16815260200190815260200160002060040160009054906101000a900473ffffffffffffffffffffffffffffffffffffffff1673ffffffffffffffffffffffffffffffffffffffff16146106c3576040517f08c379a00000000000000000000000000000000000000000000000000000000081526004016106ba90612d92565b60405180910390fd5b6000601860003373ffffffffffffffffffffffffffffffffffffffff1673ffffffffffffffffffffffffffffffffffffffff1681526020019081526020016000206000015414610748576040517f08c379a000000000000000000000000000000000000000000000000000000000815260040161073f90612dfe565b60405180910390fd5b61075181611c9d565b610790576040517f08c379a000000000000000000000000000000000000000000000000000000000815260040161078790612d26565b60405180910390fd5b61079a3382611d28565b156107da576040517f08c379a00000000000000000000000000000000000000000000000000000000081526004016107d190612e6a565b60405180910390fd5b80601860003373ffffffffffffffffffffffffffffffffffffffff1673ffffffffffffffffffffffffffffffffffffffff16815260200190815260200160002060040160006101000a81548173ffffffffffffffffffffffffffffffffffffffff021916908373ffffffffffffffffffffffffffffffffffffffff160217905550601860008273ffffffffffffffffffffffffffffffffffffffff1673ffffffffffffffffffffffffffffffffffffffff16815260200190815260200160002060070160008154809291906108ae90612eb9565b91905055508073ffffffffffffffffffffffffffffffffffffffff163373ffffffffffffffffffffffffffffffffffffffff167ffd43abdc1b330cff3a3b1571cb7ed7f3040abee39dcefeba0df4cf342fb8203060405160405180910390a350565b60145481565b61091e611e36565b80601660008473ffffffffffffffffffffffffffffffffffffffff1673ffffffffffffffffffffffffffffffffffffffff16815260200190815260200160002060006101000a81548160ff0219169083151502179055505050565b610981611e36565b600f82106109c4576040517f08c379a00000000000000000000000000000000000000000000000000000000081526004016109bb90612f4d565b60405180910390fd5b6127108110610a08576040517f08c379a00000000000000000000000000000000000000000000000000000000081526004016109ff90612fb9565b60405180910390fd5b80600383600f8110610a1d57610a1c612fd9565b5b01819055505050565b610a2f33611eb4565b610a3833610fbc565b15610a78576040517f08c379a0000000000000000000000000000000000000000000000000000000008152600401610a6f9061307a565b60405180910390fd5b6000601860003373ffffffffffffffffffffffffffffffffffffffff1673ffffffffffffffffffffffffffffffffffffffff1681526020019081526020016000209050600081600301548260020154610ad1919061309a565b90506015548111610b17576040517f08c379a0000000000000000000000000000000000000000000000000000000008152600401610b0e90613140565b60405180910390fd5b6000819050600060155414610b425760155482610b34919061318f565b82610b3f919061309a565b90505b80836003016000828254610b5691906131c0565b92505081905550610baa3382600160009054906101000a900473ffffffffffffffffffffffffffffffffffffffff1673ffffffffffffffffffffffffffffffffffffffff16611f5e9092919063ffffffff16565b3373ffffffffffffffffffffffffffffffffffffffff167f106f923f993c2149d49b4255ff723acafa1f2d94393f561d3eda32ae348f724182604051610bf091906129cc565b60405180910390a2505050565b610c05611e36565b600f811115610c49576040517f08c379a0000000000000000000000000000000000000000000000000000000008152600401610c4090613240565b60405180910390fd5b8060138190555050565b610c5b611e36565b8060148190555050565b610c6d611e36565b610d5533600160009054906101000a900473ffffffffffffffffffffffffffffffffffffffff1673ffffffffffffffffffffffffffffffffffffffff166370a08231306040518263ffffffff1660e01b8152600401610ccc9190612b07565b602060405180830381865afa158015610ce9573d6000803e3d6000fd5b505050506040513d601f19601f82011682018060405250810190610d0d9190613275565b600160009054906101000a900473ffffffffffffffffffffffffffffffffffffffff1673ffffffffffffffffffffffffffffffffffffffff16611f5e9092919063ffffffff16565b565b600260009054906101000a900473ffffffffffffffffffffffffffffffffffffffff1681565b6000806000806000601860008773ffffffffffffffffffffffffffffffffffffffff1673ffffffffffffffffffffffffffffffffffffffff16815260200190815260200160002060405180610100016040529081600082015481526020016001820154815260200160028201548152602001600382015481526020016004820160009054906101000a900473ffffffffffffffffffffffffffffffffffffffff1673ffffffffffffffffffffffffffffffffffffffff1673ffffffffffffffffffffffffffffffffffffffff168152602001600582015481526020016006820154815260200160078201548152505090506000610e7987611fe4565b905081606001518260400151610e8f919061309a565b81610e9a91906131c0565b8260600151828460400151610eaf91906131c0565b60028560200151610ec091906132a2565b955095509550955050509193509193565b610ed9611e36565b610ee3600061219f565b565b600160009054906101000a900473ffffffffffffffffffffffffffffffffffffffff1681565b60176020528060005260406000206000915054906101000a900460ff1681565b60008060009054906101000a900473ffffffffffffffffffffffffffffffffffffffff16905090565b610f5c611e36565b6127108110610fa0576040517f08c379a0000000000000000000000000000000000000000000000000000000008152600401610f9790612fb9565b60405180910390fd5b8060128190555050565b610fb2611e36565b8060158190555050565b6000601660008373ffffffffffffffffffffffffffffffffffffffff1673ffffffffffffffffffffffffffffffffffffffff16815260200190815260200160002060009054906101000a900460ff169050919050565b681b1ae4d6e2ef50000081101561105e576040517f08c379a000000000000000000000000000000000000000000000000000000000815260040161105590613330565b60405180910390fd5b6000601860003373ffffffffffffffffffffffffffffffffffffffff1673ffffffffffffffffffffffffffffffffffffffff16815260200190815260200160002090506110aa33611eb4565b60008160000154111561110d578060020154816001015460026110cd91906132a2565b10156110d857600080fd5b60028160020154826001015460026110f091906132a2565b6110fa919061309a565b6111049190613350565b81600001819055505b8181600101600082825461112191906131c0565b925050819055508181600001600082825461113c91906131c0565b92505081905550428160050181905550620151804261115b91906131c0565b81600601819055506111d433600260009054906101000a900473ffffffffffffffffffffffffffffffffffffffff1684600160009054906101000a900473ffffffffffffffffffffffffffffffffffffffff1673ffffffffffffffffffffffffffffffffffffffff16612263909392919063ffffffff16565b6111de33836122ec565b3373ffffffffffffffffffffffffffffffffffffffff167f9e71bc8eea02a63969f509818f2dafb9254532904319f9dbda79b67bd34a5f3d8360405161122491906129cc565b60405180910390a23373ffffffffffffffffffffffffffffffffffffffff167f2893dba51b8a606b57773f73f64b23e27a5128fb1b88c4120b0a27efc3ba9b06826000015460405161127691906129cc565b60405180910390a25050565b60186020528060005260406000206000915090508060000154908060010154908060020154908060030154908060040160009054906101000a900473ffffffffffffffffffffffffffffffffffffffff16908060050154908060060154908060070154905088565b600080601860008473ffffffffffffffffffffffffffffffffffffffff1673ffffffffffffffffffffffffffffffffffffffff16815260200190815260200160002060405180610100016040529081600082015481526020016001820154815260200160028201548152602001600382015481526020016004820160009054906101000a900473ffffffffffffffffffffffffffffffffffffffff1673ffffffffffffffffffffffffffffffffffffffff1673ffffffffffffffffffffffffffffffffffffffff1681526020016005820154815260200160068201548152602001600782015481525050905060006113e184611fe4565b90506000826060015183604001516113f9919061309a565b90506000818361140991906131c0565b905060006002856000015161141e91906132a2565b90508082866040015161143191906131c0565b111561144a57846040015181611447919061309a565b91505b8195505050505050919050565b60155481565b611465611e36565b6000601860008473ffffffffffffffffffffffffffffffffffffffff1673ffffffffffffffffffffffffffffffffffffffff1681526020019081526020016000209050681b1ae4d6e2ef5000008210156114f4576040517f08c379a00000000000000000000000000000000000000000000000000000000081526004016114eb90613330565b60405180910390fd5b6114fd83611eb4565b6000816000015411156115605780600201548160010154600261152091906132a2565b101561152b57600080fd5b600281600201548260010154600261154391906132a2565b61154d919061309a565b6115579190613350565b81600001819055505b8181600101600082825461157491906131c0565b925050819055508181600001600082825461158f91906131c0565b9250508190555042816005018190555062015180426115ae91906131c0565b816006018190555061162733600260009054906101000a900473ffffffffffffffffffffffffffffffffffffffff1684600160009054906101000a900473ffffffffffffffffffffffffffffffffffffffff1673ffffffffffffffffffffffffffffffffffffffff16612263909392919063ffffffff16565b61163183836122ec565b8273ffffffffffffffffffffffffffffffffffffffff167f9e71bc8eea02a63969f509818f2dafb9254532904319f9dbda79b67bd34a5f3d8360405161167791906129cc565b60405180910390a23373ffffffffffffffffffffffffffffffffffffffff167f2893dba51b8a606b57773f73f64b23e27a5128fb1b88c4120b0a27efc3ba9b0682600001546040516116c991906129cc565b60405180910390a2505050565b60125481565b61172b333083600160009054906101000a900473ffffffffffffffffffffffffffffffffffffffff1673ffffffffffffffffffffffffffffffffffffffff16612263909392919063ffffffff16565b50565b681b1ae4d6e2ef50000081565b601760003373ffffffffffffffffffffffffffffffffffffffff1673ffffffffffffffffffffffffffffffffffffffff16815260200190815260200160002060009054906101000a900460ff16156117c8576040517f08c379a00000000000000000000000000000000000000000000000000000000081526004016117bf906133cd565b60405180910390fd5b600073ffffffffffffffffffffffffffffffffffffffff168173ffffffffffffffffffffffffffffffffffffffff1603611837576040517f08c379a000000000000000000000000000000000000000000000000000000000815260040161182e90612d26565b60405180910390fd5b600073ffffffffffffffffffffffffffffffffffffffff16601860003373ffffffffffffffffffffffffffffffffffffffff1673ffffffffffffffffffffffffffffffffffffffff16815260200190815260200160002060040160009054906101000a900473ffffffffffffffffffffffffffffffffffffffff1673ffffffffffffffffffffffffffffffffffffffff1614611908576040517f08c379a00000000000000000000000000000000000000000000000000000000081526004016118ff90612d92565b60405180910390fd5b6000601860003373ffffffffffffffffffffffffffffffffffffffff1673ffffffffffffffffffffffffffffffffffffffff168152602001908152602001600020600001541461198d576040517f08c379a000000000000000000000000000000000000000000000000000000000815260040161198490612dfe565b60405180910390fd5b61199681611c9d565b6119d5576040517f08c379a00000000000000000000000000000000000000000000000000000000081526004016119cc90612d26565b60405180910390fd5b6119df3382611d28565b15611a1f576040517f08c379a0000000000000000000000000000000000000000000000000000000008152600401611a1690612e6a565b60405180910390fd5b80601860003373ffffffffffffffffffffffffffffffffffffffff1673ffffffffffffffffffffffffffffffffffffffff16815260200190815260200160002060040160006101000a81548173ffffffffffffffffffffffffffffffffffffffff021916908373ffffffffffffffffffffffffffffffffffffffff160217905550601860008273ffffffffffffffffffffffffffffffffffffffff1673ffffffffffffffffffffffffffffffffffffffff1681526020019081526020016000206007016000815480929190611af390612eb9565b91905055506001601760003373ffffffffffffffffffffffffffffffffffffffff1673ffffffffffffffffffffffffffffffffffffffff16815260200190815260200160002060006101000a81548160ff0219169083151502179055508073ffffffffffffffffffffffffffffffffffffffff163373ffffffffffffffffffffffffffffffffffffffff167ffd43abdc1b330cff3a3b1571cb7ed7f3040abee39dcefeba0df4cf342fb8203060405160405180910390a350565b611bb5611e36565b80600260006101000a81548173ffffffffffffffffffffffffffffffffffffffff021916908373ffffffffffffffffffffffffffffffffffffffff16021790555050565b600381600f8110611c0957600080fd5b016000915090505481565b611c1c611e36565b600073ffffffffffffffffffffffffffffffffffffffff168173ffffffffffffffffffffffffffffffffffffffff1603611c8b576040517f08c379a0000000000000000000000000000000000000000000000000000000008152600401611c829061345f565b60405180910390fd5b611c948161219f565b50565b60135481565b600080601860008473ffffffffffffffffffffffffffffffffffffffff1673ffffffffffffffffffffffffffffffffffffffff168152602001908152602001600020600101541180611d215750611cf2610f2b565b73ffffffffffffffffffffffffffffffffffffffff168273ffffffffffffffffffffffffffffffffffffffff16145b9050919050565b60008082905060005b600073ffffffffffffffffffffffffffffffffffffffff168273ffffffffffffffffffffffffffffffffffffffff1614158015611d6e5750601081105b15611e29578473ffffffffffffffffffffffffffffffffffffffff168273ffffffffffffffffffffffffffffffffffffffff1603611db157600192505050611e30565b601860008373ffffffffffffffffffffffffffffffffffffffff1673ffffffffffffffffffffffffffffffffffffffff16815260200190815260200160002060040160009054906101000a900473ffffffffffffffffffffffffffffffffffffffff1691508080611e2190612eb9565b915050611d31565b6000925050505b92915050565b611e3e61269e565b73ffffffffffffffffffffffffffffffffffffffff16611e5c610f2b565b73ffffffffffffffffffffffffffffffffffffffff1614611eb2576040517f08c379a0000000000000000000000000000000000000000000000000000000008152600401611ea9906134cb565b60405180910390fd5b565b6000601860008373ffffffffffffffffffffffffffffffffffffffff1673ffffffffffffffffffffffffffffffffffffffff1681526020019081526020016000209050600081600601541480611f0e575080600601544211155b15611f195750611f5b565b6000611f2483611fe4565b9050611f2f83610fbc565b611f4f5780826002016000828254611f4791906131c0565b925050819055505b42826006018190555050505b50565b611fdf8363a9059cbb60e01b8484604051602401611f7d9291906134eb565b604051602081830303815290604052907bffffffffffffffffffffffffffffffffffffffffffffffffffffffff19166020820180517bffffffffffffffffffffffffffffffffffffffffffffffffffffffff83818316178352505050506126a6565b505050565b600080601860008473ffffffffffffffffffffffffffffffffffffffff1673ffffffffffffffffffffffffffffffffffffffff16815260200190815260200160002060405180610100016040529081600082015481526020016001820154815260200160028201548152602001600382015481526020016004820160009054906101000a900473ffffffffffffffffffffffffffffffffffffffff1673ffffffffffffffffffffffffffffffffffffffff1673ffffffffffffffffffffffffffffffffffffffff1681526020016005820154815260200160068201548152602001600782015481525050905060008160000151036120e657600091505061219a565b6000600282602001516120f991906132a2565b9050808260400151106121115760009250505061219a565b8160c001514210156121285760009250505061219a565b600063337f98008360c001514261213f919061309a565b601254856000015161215191906132a2565b61215b91906132a2565b6121659190613350565b90508181846040015161217891906131c0565b116121835780612194565b826040015182612193919061309a565b5b93505050505b919050565b60008060009054906101000a900473ffffffffffffffffffffffffffffffffffffffff169050816000806101000a81548173ffffffffffffffffffffffffffffffffffffffff021916908373ffffffffffffffffffffffffffffffffffffffff1602179055508173ffffffffffffffffffffffffffffffffffffffff168173ffffffffffffffffffffffffffffffffffffffff167f8be0079c531659141344cd1fd0a4f28419497f9722a3daafe3b4186f6b6457e060405160405180910390a35050565b6122e6846323b872dd60e01b85858560405160240161228493929190613514565b604051602081830303815290604052907bffffffffffffffffffffffffffffffffffffffffffffffffffffffff19166020820180517bffffffffffffffffffffffffffffffffffffffffffffffffffffffff83818316178352505050506126a6565b50505050565b6000601860008473ffffffffffffffffffffffffffffffffffffffff1673ffffffffffffffffffffffffffffffffffffffff16815260200190815260200160002060040160009054906101000a900473ffffffffffffffffffffffffffffffffffffffff16905060005b60135481101561269857600073ffffffffffffffffffffffffffffffffffffffff168273ffffffffffffffffffffffffffffffffffffffff160315612698576000811180156123e85750601454601860008473ffffffffffffffffffffffffffffffffffffffff1673ffffffffffffffffffffffffffffffffffffffff16815260200190815260200160002060070154105b806123f857506123f782610fbc565b5b1561246757601860008373ffffffffffffffffffffffffffffffffffffffff1673ffffffffffffffffffffffffffffffffffffffff16815260200190815260200160002060040160009054906101000a900473ffffffffffffffffffffffffffffffffffffffff16915061268b565b6000612710600383600f81106124805761247f612fd9565b5b01548561248d91906132a2565b6124979190613350565b90506000601860008573ffffffffffffffffffffffffffffffffffffffff1673ffffffffffffffffffffffffffffffffffffffff168152602001908152602001600020600201546002601860008773ffffffffffffffffffffffffffffffffffffffff1673ffffffffffffffffffffffffffffffffffffffff1681526020019081526020016000206001015461252d91906132a2565b612537919061309a565b905060008111156126235760008183116125515782612553565b815b905080601860008773ffffffffffffffffffffffffffffffffffffffff1673ffffffffffffffffffffffffffffffffffffffff16815260200190815260200160002060020160008282546125a791906131c0565b925050819055508673ffffffffffffffffffffffffffffffffffffffff168573ffffffffffffffffffffffffffffffffffffffff167fbd7e5be34537a425747cf06d84eca4d59c865e2002b7d5f36f14558bdc5ae8cd60018761260a91906131c0565b8460405161261992919061354b565b60405180910390a3505b601860008573ffffffffffffffffffffffffffffffffffffffff1673ffffffffffffffffffffffffffffffffffffffff16815260200190815260200160002060040160009054906101000a900473ffffffffffffffffffffffffffffffffffffffff16935050505b8080600101915050612356565b50505050565b600033905090565b6000612708826040518060400160405280602081526020017f5361666545524332303a206c6f772d6c6576656c2063616c6c206661696c65648152508573ffffffffffffffffffffffffffffffffffffffff1661276d9092919063ffffffff16565b905060008151111561276857808060200190518101906127289190613589565b612767576040517f08c379a000000000000000000000000000000000000000000000000000000000815260040161275e90613628565b60405180910390fd5b5b505050565b606061277c8484600085612785565b90509392505050565b6060824710156127ca576040517f08c379a00000000000000000000000000000000000000000000000000000000081526004016127c1906136ba565b60405180910390fd5b6127d385612899565b612812576040517f08c379a000000000000000000000000000000000000000000000000000000000815260040161280990613726565b60405180910390fd5b6000808673ffffffffffffffffffffffffffffffffffffffff16858760405161283b91906137b7565b60006040518083038185875af1925050503d8060008114612878576040519150601f19603f3d011682016040523d82523d6000602084013e61287d565b606091505b509150915061288d8282866128bc565b92505050949350505050565b6000808273ffffffffffffffffffffffffffffffffffffffff163b119050919050565b606083156128cc5782905061291c565b6000835111156128df5782518084602001fd5b816040517f08c379a00000000000000000000000000000000000000000000000000000000081526004016129139190613823565b60405180910390fd5b9392505050565b600080fd5b600073ffffffffffffffffffffffffffffffffffffffff82169050919050565b600061295382612928565b9050919050565b61296381612948565b811461296e57600080fd5b50565b6000813590506129808161295a565b92915050565b60006020828403121561299c5761299b612923565b5b60006129aa84828501612971565b91505092915050565b6000819050919050565b6129c6816129b3565b82525050565b60006020820190506129e160008301846129bd565b92915050565b60008115159050919050565b6129fc816129e7565b8114612a0757600080fd5b50565b600081359050612a19816129f3565b92915050565b60008060408385031215612a3657612a35612923565b5b6000612a4485828601612971565b9250506020612a5585828601612a0a565b9150509250929050565b612a68816129b3565b8114612a7357600080fd5b50565b600081359050612a8581612a5f565b92915050565b60008060408385031215612aa257612aa1612923565b5b6000612ab085828601612a76565b9250506020612ac185828601612a76565b9150509250929050565b600060208284031215612ae157612ae0612923565b5b6000612aef84828501612a76565b91505092915050565b612b0181612948565b82525050565b6000602082019050612b1c6000830184612af8565b92915050565b6000608082019050612b3760008301876129bd565b612b4460208301866129bd565b612b5160408301856129bd565b612b5e60608301846129bd565b95945050505050565b6000819050919050565b6000612b8c612b87612b8284612928565b612b67565b612928565b9050919050565b6000612b9e82612b71565b9050919050565b6000612bb082612b93565b9050919050565b612bc081612ba5565b82525050565b6000602082019050612bdb6000830184612bb7565b92915050565b612bea816129e7565b82525050565b6000602082019050612c056000830184612be1565b92915050565b600061010082019050612c21600083018b6129bd565b612c2e602083018a6129bd565b612c3b60408301896129bd565b612c4860608301886129bd565b612c556080830187612af8565b612c6260a08301866129bd565b612c6f60c08301856129bd565b612c7c60e08301846129bd565b9998505050505050505050565b60008060408385031215612ca057612c9f612923565b5b6000612cae85828601612971565b9250506020612cbf85828601612a76565b9150509250929050565b600082825260208201905092915050565b7f496e76616c696420726566657272657200000000000000000000000000000000600082015250565b6000612d10601083612cc9565b9150612d1b82612cda565b602082019050919050565b60006020820190508181036000830152612d3f81612d03565b9050919050565b7f416c726561647920626f756e6400000000000000000000000000000000000000600082015250565b6000612d7c600d83612cc9565b9150612d8782612d46565b602082019050919050565b60006020820190508181036000830152612dab81612d6f565b9050919050565b7f416c7265616479207374616b6564000000000000000000000000000000000000600082015250565b6000612de8600e83612cc9565b9150612df382612db2565b602082019050919050565b60006020820190508181036000830152612e1781612ddb565b9050919050565b7f43697263756c6172207265666572656e63650000000000000000000000000000600082015250565b6000612e54601283612cc9565b9150612e5f82612e1e565b602082019050919050565b60006020820190508181036000830152612e8381612e47565b9050919050565b7f4e487b7100000000000000000000000000000000000000000000000000000000600052601160045260246000fd5b6000612ec4826129b3565b91507fffffffffffffffffffffffffffffffffffffffffffffffffffffffffffffffff8203612ef657612ef5612e8a565b5b600182019050919050565b7f696e76616c696420696e64657800000000000000000000000000000000000000600082015250565b6000612f37600d83612cc9565b9150612f4282612f01565b602082019050919050565b60006020820190508181036000830152612f6681612f2a565b9050919050565b7f726174652063616e2774206c6172676572207468616e20313030000000000000600082015250565b6000612fa3601a83612cc9565b9150612fae82612f6d565b602082019050919050565b60006020820190508181036000830152612fd281612f96565b9050919050565b7f4e487b7100000000000000000000000000000000000000000000000000000000600052603260045260246000fd5b7f596f752061726520696e20626c61636b6c6973742c63616e277420636c61696d60008201527f526577617264732e000000000000000000000000000000000000000000000000602082015250565b6000613064602883612cc9565b915061306f82613008565b604082019050919050565b6000602082019050818103600083015261309381613057565b9050919050565b60006130a5826129b3565b91506130b0836129b3565b92508282039050818111156130c8576130c7612e8a565b5b92915050565b7f436c61696d20616d6f756e742063616e2774203c206d696e436c61696d416d6f60008201527f756e742100000000000000000000000000000000000000000000000000000000602082015250565b600061312a602483612cc9565b9150613135826130ce565b604082019050919050565b600060208201905081810360008301526131598161311d565b9050919050565b7f4e487b7100000000000000000000000000000000000000000000000000000000600052601260045260246000fd5b600061319a826129b3565b91506131a5836129b3565b9250826131b5576131b4613160565b5b828206905092915050565b60006131cb826129b3565b91506131d6836129b3565b92508282019050808211156131ee576131ed612e8a565b5b92915050565b7f67656e65726174696f6e2063616e2774203e2031350000000000000000000000600082015250565b600061322a601583612cc9565b9150613235826131f4565b602082019050919050565b600060208201905081810360008301526132598161321d565b9050919050565b60008151905061326f81612a5f565b92915050565b60006020828403121561328b5761328a612923565b5b600061329984828501613260565b91505092915050565b60006132ad826129b3565b91506132b8836129b3565b92508282026132c6816129b3565b915082820484148315176132dd576132dc612e8a565b5b5092915050565b7f42656c6f77206d696e696d756d207374616b6500000000000000000000000000600082015250565b600061331a601383612cc9565b9150613325826132e4565b602082019050919050565b600060208201905081810360008301526133498161330d565b9050919050565b600061335b826129b3565b9150613366836129b3565b92508261337657613375613160565b5b828204905092915050565b7f557365722063616e206f6e6c7920757064617465206f6e636500000000000000600082015250565b60006133b7601983612cc9565b91506133c282613381565b602082019050919050565b600060208201905081810360008301526133e6816133aa565b9050919050565b7f4f776e61626c653a206e6577206f776e657220697320746865207a65726f206160008201527f6464726573730000000000000000000000000000000000000000000000000000602082015250565b6000613449602683612cc9565b9150613454826133ed565b604082019050919050565b600060208201905081810360008301526134788161343c565b9050919050565b7f4f776e61626c653a2063616c6c6572206973206e6f7420746865206f776e6572600082015250565b60006134b5602083612cc9565b91506134c08261347f565b602082019050919050565b600060208201905081810360008301526134e4816134a8565b9050919050565b60006040820190506135006000830185612af8565b61350d60208301846129bd565b9392505050565b60006060820190506135296000830186612af8565b6135366020830185612af8565b61354360408301846129bd565b949350505050565b600060408201905061356060008301856129bd565b61356d60208301846129bd565b9392505050565b600081519050613583816129f3565b92915050565b60006020828403121561359f5761359e612923565b5b60006135ad84828501613574565b91505092915050565b7f5361666545524332303a204552433230206f7065726174696f6e20646964206e60008201527f6f74207375636365656400000000000000000000000000000000000000000000602082015250565b6000613612602a83612cc9565b915061361d826135b6565b604082019050919050565b6000602082019050818103600083015261364181613605565b9050919050565b7f416464726573733a20696e73756666696369656e742062616c616e636520666f60008201527f722063616c6c0000000000000000000000000000000000000000000000000000602082015250565b60006136a4602683612cc9565b91506136af82613648565b604082019050919050565b600060208201905081810360008301526136d381613697565b9050919050565b7f416464726573733a2063616c6c20746f206e6f6e2d636f6e7472616374000000600082015250565b6000613710601d83612cc9565b915061371b826136da565b602082019050919050565b6000602082019050818103600083015261373f81613703565b9050919050565b600081519050919050565b600081905092915050565b60005b8381101561377a57808201518184015260208101905061375f565b60008484015250505050565b600061379182613746565b61379b8185613751565b93506137ab81856020860161375c565b80840191505092915050565b60006137c38284613786565b915081905092915050565b600081519050919050565b6000601f19601f8301169050919050565b60006137f5826137ce565b6137ff8185612cc9565b935061380f81856020860161375c565b613818816137d9565b840191505092915050565b6000602082019050818103600083015261383d81846137ea565b90509291505056fea26469706673582212207bfc0eabb692c931e9550edd0bb2b5cb8e5ed127508f35e387d8d245a50ae64964736f6c63430008180033",
  "linkReferences": {},
  "deployedLinkReferences": {}
}