{
  "_format": "hh-sol-artifact-1",
  "contractName": "StakingContractV2",
  "sourceName": "contracts/teamDao/v2/stakingReward.sol",
  "abi": [
    {
      "inputs": [
        {
          "internalType": "address",
          "name": "_stakingToken",
          "type": "address"
        },
        {
          "internalType": "address",
          "name": "_treasury",
          "type": "address"
        }
      ],
      "stateMutability": "nonpayable",
      "type": "constructor"
    },
    {
      "anonymous": false,
      "inputs": [
        {
          "indexed": true,
          "internalType": "address",
          "name": "user",
          "type": "address"
        },
        {
          "indexed": true,
          "internalType": "address",
          "name": "referrer",
          "type": "address"
        }
      ],
      "name": "BindReferrer",
      "type": "event"
    },
    {
      "anonymous": false,
      "inputs": [
        {
          "indexed": true,
          "internalType": "address",
          "name": "previousOwner",
          "type": "address"
        },
        {
          "indexed": true,
          "internalType": "address",
          "name": "newOwner",
          "type": "address"
        }
      ],
      "name": "OwnershipTransferred",
      "type": "event"
    },
    {
      "anonymous": false,
      "inputs": [
        {
          "indexed": true,
          "internalType": "address",
          "name": "referrer",
          "type": "address"
        },
        {
          "indexed": true,
          "internalType": "address",
          "name": "lower",
          "type": "address"
        },
        {
          "indexed": false,
          "internalType": "uint256",
          "name": "generation",
          "type": "uint256"
        },
        {
          "indexed": false,
          "internalType": "uint256",
          "name": "amount",
          "type": "uint256"
        }
      ],
      "name": "ReferralReward",
      "type": "event"
    },
    {
      "anonymous": false,
      "inputs": [
        {
          "indexed": true,
          "internalType": "address",
          "name": "user",
          "type": "address"
        },
        {
          "indexed": false,
          "internalType": "uint256",
          "name": "amount",
          "type": "uint256"
        }
      ],
      "name": "RewardClaimed",
      "type": "event"
    },
    {
      "anonymous": false,
      "inputs": [
        {
          "indexed": true,
          "internalType": "address",
          "name": "user",
          "type": "address"
        },
        {
          "indexed": false,
          "internalType": "uint256",
          "name": "amount",
          "type": "uint256"
        }
      ],
      "name": "Staked",
      "type": "event"
    },
    {
      "inputs": [],
      "name": "MIN_STAKE",
      "outputs": [
        {
          "internalType": "uint256",
          "name": "",
          "type": "uint256"
        }
      ],
      "stateMutability": "view",
      "type": "function"
    },
    {
      "inputs": [
        {
          "internalType": "address",
          "name": "_referrer",
          "type": "address"
        }
      ],
      "name": "bindReferrer",
      "outputs": [],
      "stateMutability": "nonpayable",
      "type": "function"
    },
    {
      "inputs": [],
      "name": "claimRewards",
      "outputs": [],
      "stateMutability": "nonpayable",
      "type": "function"
    },
    {
      "inputs": [],
      "name": "dailyRewardRate",
      "outputs": [
        {
          "internalType": "uint256",
          "name": "",
          "type": "uint256"
        }
      ],
      "stateMutability": "view",
      "type": "function"
    },
    {
      "inputs": [
        {
          "internalType": "address",
          "name": "_user",
          "type": "address"
        }
      ],
      "name": "getTotalPendingRewards",
      "outputs": [
        {
          "internalType": "uint256",
          "name": "",
          "type": "uint256"
        }
      ],
      "stateMutability": "view",
      "type": "function"
    },
    {
      "inputs": [
        {
          "internalType": "address",
          "name": "_user",
          "type": "address"
        }
      ],
      "name": "getUserInfo",
      "outputs": [
        {
          "internalType": "uint256",
          "name": "pendingRewards",
          "type": "uint256"
        },
        {
          "internalType": "uint256",
          "name": "claimedRewards",
          "type": "uint256"
        },
        {
          "internalType": "uint256",
          "name": "totalRewards",
          "type": "uint256"
        },
        {
          "internalType": "uint256",
          "name": "rewardLimit",
          "type": "uint256"
        }
      ],
      "stateMutability": "view",
      "type": "function"
    },
    {
      "inputs": [
        {
          "internalType": "address",
          "name": "_user",
          "type": "address"
        }
      ],
      "name": "isInBlacklist",
      "outputs": [
        {
          "internalType": "bool",
          "name": "",
          "type": "bool"
        }
      ],
      "stateMutability": "view",
      "type": "function"
    },
    {
      "inputs": [],
      "name": "maxGeneration",
      "outputs": [
        {
          "internalType": "uint256",
          "name": "",
          "type": "uint256"
        }
      ],
      "stateMutability": "view",
      "type": "function"
    },
    {
      "inputs": [
        {
          "internalType": "address",
          "name": "_user",
          "type": "address"
        },
        {
          "internalType": "uint256",
          "name": "amount",
          "type": "uint256"
        }
      ],
      "name": "migrateStake",
      "outputs": [],
      "stateMutability": "nonpayable",
      "type": "function"
    },
    {
      "inputs": [],
      "name": "minClaimAmount",
      "outputs": [
        {
          "internalType": "uint256",
          "name": "",
          "type": "uint256"
        }
      ],
      "stateMutability": "view",
      "type": "function"
    },
    {
      "inputs": [],
      "name": "minDirectFriendsNums",
      "outputs": [
        {
          "internalType": "uint256",
          "name": "",
          "type": "uint256"
        }
      ],
      "stateMutability": "view",
      "type": "function"
    },
    {
      "inputs": [],
      "name": "owner",
      "outputs": [
        {
          "internalType": "address",
          "name": "",
          "type": "address"
        }
      ],
      "stateMutability": "view",
      "type": "function"
    },
    {
      "inputs": [
        {
          "internalType": "uint256",
          "name": "amount",
          "type": "uint256"
        }
      ],
      "name": "refill",
      "outputs": [],
      "stateMutability": "nonpayable",
      "type": "function"
    },
    {
      "inputs": [],
      "name": "renounceOwnership",
      "outputs": [],
      "stateMutability": "nonpayable",
      "type": "function"
    },
    {
      "inputs": [
        {
          "internalType": "uint256",
          "name": "",
          "type": "uint256"
        }
      ],
      "name": "rewardRates",
      "outputs": [
        {
          "internalType": "uint256",
          "name": "",
          "type": "uint256"
        }
      ],
      "stateMutability": "view",
      "type": "function"
    },
    {
      "inputs": [
        {
          "internalType": "address",
          "name": "_user",
          "type": "address"
        },
        {
          "internalType": "bool",
          "name": "_isBlack",
          "type": "bool"
        }
      ],
      "name": "setBlacklist",
      "outputs": [],
      "stateMutability": "nonpayable",
      "type": "function"
    },
    {
      "inputs": [
        {
          "internalType": "uint256",
          "name": "newRate",
          "type": "uint256"
        }
      ],
      "name": "setDailyRewardRate",
      "outputs": [],
      "stateMutability": "nonpayable",
      "type": "function"
    },
    {
      "inputs": [
        {
          "internalType": "uint256",
          "name": "generation",
          "type": "uint256"
        }
      ],
      "name": "setMaxGeneration",
      "outputs": [],
      "stateMutability": "nonpayable",
      "type": "function"
    },
    {
      "inputs": [
        {
          "internalType": "uint256",
          "name": "_minClaimAmount",
          "type": "uint256"
        }
      ],
      "name": "setMinClaimAmount",
      "outputs": [],
      "stateMutability": "nonpayable",
      "type": "function"
    },
    {
      "inputs": [
        {
          "internalType": "uint256",
          "name": "directNums",
          "type": "uint256"
        }
      ],
      "name": "setMinDirectFriendsNums",
      "outputs": [],
      "stateMutability": "nonpayable",
      "type": "function"
    },
    {
      "inputs": [
        {
          "internalType": "uint256",
          "name": "index",
          "type": "uint256"
        },
        {
          "internalType": "uint256",
          "name": "newRate",
          "type": "uint256"
        }
      ],
      "name": "setRewardRate",
      "outputs": [],
      "stateMutability": "nonpayable",
      "type": "function"
    },
    {
      "inputs": [
        {
          "internalType": "address",
          "name": "_treasury",
          "type": "address"
        }
      ],
      "name": "setTreasury",
      "outputs": [],
      "stateMutability": "nonpayable",
      "type": "function"
    },
    {
      "inputs": [
        {
          "internalType": "uint256",
          "name": "amount",
          "type": "uint256"
        }
      ],
      "name": "stake",
      "outputs": [],
      "stateMutability": "nonpayable",
      "type": "function"
    },
    {
      "inputs": [],
      "name": "stakingToken",
      "outputs": [
        {
          "internalType": "contract IERC20",
          "name": "",
          "type": "address"
        }
      ],
      "stateMutability": "view",
      "type": "function"
    },
    {
      "inputs": [
        {
          "internalType": "address",
          "name": "newOwner",
          "type": "address"
        }
      ],
      "name": "transferOwnership",
      "outputs": [],
      "stateMutability": "nonpayable",
      "type": "function"
    },
    {
      "inputs": [],
      "name": "treasury",
      "outputs": [
        {
          "internalType": "address",
          "name": "",
          "type": "address"
        }
      ],
      "stateMutability": "view",
      "type": "function"
    },
    {
      "inputs": [
        {
          "internalType": "address",
          "name": "",
          "type": "address"
        }
      ],
      "name": "updateInvitingRecords",
      "outputs": [
        {
          "internalType": "bool",
          "name": "",
          "type": "bool"
        }
      ],
      "stateMutability": "view",
      "type": "function"
    },
    {
      "inputs": [
        {
          "internalType": "address",
          "name": "_referrer",
          "type": "address"
        }
      ],
      "name": "updateReferrer",
      "outputs": [],
      "stateMutability": "nonpayable",
      "type": "function"
    },
    {
      "inputs": [
        {
          "internalType": "address",
          "name": "",
          "type": "address"
        }
      ],
      "name": "users",
      "outputs": [
        {
          "internalType": "uint256",
          "name": "totalStaked",
          "type": "uint256"
        },
        {
          "internalType": "uint256",
          "name": "totalRewards",
          "type": "uint256"
        },
        {
          "internalType": "uint256",
          "name": "claimedRewards",
          "type": "uint256"
        },
        {
          "internalType": "address",
          "name": "referrer",
          "type": "address"
        },
        {
          "internalType": "uint256",
          "name": "lastStakeTime",
          "type": "uint256"
        },
        {
          "internalType": "uint256",
          "name": "lastRewardTime",
          "type": "uint256"
        },
        {
          "internalType": "uint256",
          "name": "directFriendNums",
          "type": "uint256"
        }
      ],
      "stateMutability": "view",
      "type": "function"
    },
    {
      "inputs": [],
      "name": "withdrawBalance",
      "outputs": [],
      "stateMutability": "nonpayable",
      "type": "function"
    }
  ],
  "bytecode": "0x6080604052604051806101e001604052806107d061ffff16815260200161019061ffff16815260200161019061ffff16815260200161012c61ffff16815260200161012c61ffff16815260200161012c61ffff16815260200160c861ffff16815260200160c861ffff16815260200160c861ffff168152602001606461ffff168152602001606461ffff168152602001606461ffff168152602001606461ffff168152602001606461ffff168152602001606461ffff16815250600390600f620000cb92919062000298565b506101f460125568056bc75e2d63100000601555348015620000ec57600080fd5b5060405162003a6738038062003a6783398181016040528101906200011291906200036c565b6200013262000126620001cc60201b60201c565b620001d460201b60201c565b81600160006101000a81548173ffffffffffffffffffffffffffffffffffffffff021916908373ffffffffffffffffffffffffffffffffffffffff16021790555080600260006101000a81548173ffffffffffffffffffffffffffffffffffffffff021916908373ffffffffffffffffffffffffffffffffffffffff160217905550600f60138190555060006014819055505050620003b3565b600033905090565b60008060009054906101000a900473ffffffffffffffffffffffffffffffffffffffff169050816000806101000a81548173ffffffffffffffffffffffffffffffffffffffff021916908373ffffffffffffffffffffffffffffffffffffffff1602179055508173ffffffffffffffffffffffffffffffffffffffff168173ffffffffffffffffffffffffffffffffffffffff167f8be0079c531659141344cd1fd0a4f28419497f9722a3daafe3b4186f6b6457e060405160405180910390a35050565b82600f8101928215620002d0579160200282015b82811115620002cf578251829061ffff16905591602001919060010190620002ac565b5b509050620002df9190620002e3565b5090565b5b80821115620002fe576000816000905550600101620002e4565b5090565b600080fd5b600073ffffffffffffffffffffffffffffffffffffffff82169050919050565b6000620003348262000307565b9050919050565b620003468162000327565b81146200035257600080fd5b50565b60008151905062000366816200033b565b92915050565b6000806040838503121562000386576200038562000302565b5b6000620003968582860162000355565b9250506020620003a98582860162000355565b9150509250929050565b6136a480620003c36000396000f3fe608060405234801561001057600080fd5b50600436106101da5760003560e01c8063922fc24811610104578063c1e3d2dd116100a2578063f0f4426011610071578063f0f44260146104fc578063f2caeb1e14610518578063f2fde38b14610548578063f503970a14610564576101da565b8063c1e3d2dd14610488578063ca9d07ba146104a6578063cb1c2b5c146104c2578063ebd2c7d9146104e0576101da565b8063a87430ba116100de578063a87430ba146103e8578063a8c478ba1461041e578063adc25bde1461044e578063bdcd9c801461046c576101da565b8063922fc248146103805780639caf9b001461039c578063a694fc3a146103cc576101da565b80635fd8c7101161017c57806372f702f31161014b57806372f702f3146102f85780637346f65c146103165780638da5cb5b146103465780638df2517014610364576101da565b80635fd8c7101461029357806361d027b31461029d5780636386c1c7146102bb578063715018a6146102ee576101da565b80633462e0a8116101b85780633462e0a814610235578063372500ab14610251578063456173c51461025b5780634a54e5ce14610277576101da565b806304f618cb146101df5780630f67628e146101fb578063153b0d1e14610219575b600080fd5b6101f960048036038101906101f491906127be565b610582565b005b61020361090f565b6040516102109190612804565b60405180910390f35b610233600480360381019061022e9190612857565b610915565b005b61024f600480360381019061024a91906128c3565b610978565b005b610259610a25565b005b61027560048036038101906102709190612903565b610bfc565b005b610291600480360381019061028c9190612903565b610c52565b005b61029b610c64565b005b6102a5610d56565b6040516102b2919061293f565b60405180910390f35b6102d560048036038101906102d091906127be565b610d7c565b6040516102e5949392919061295a565b60405180910390f35b6102f6610ec5565b005b610300610ed9565b60405161030d91906129fe565b60405180910390f35b610330600480360381019061032b91906127be565b610eff565b60405161033d9190612a28565b60405180910390f35b61034e610f1f565b60405161035b919061293f565b60405180910390f35b61037e60048036038101906103799190612903565b610f48565b005b61039a60048036038101906103959190612903565b610f9e565b005b6103b660048036038101906103b191906127be565b610fb0565b6040516103c39190612a28565b60405180910390f35b6103e660048036038101906103e19190612903565b611006565b005b61040260048036038101906103fd91906127be565b6111a6565b6040516104159796959493929190612a43565b60405180910390f35b610438600480360381019061043391906127be565b611208565b6040516104459190612804565b60405180910390f35b61045661136a565b6040516104639190612804565b60405180910390f35b61048660048036038101906104819190612ab2565b611370565b005b610490611519565b60405161049d9190612804565b60405180910390f35b6104c060048036038101906104bb9190612903565b61151f565b005b6104ca611571565b6040516104d79190612804565b60405180910390f35b6104fa60048036038101906104f591906127be565b61157e565b005b610516600480360381019061051191906127be565b6119f0565b005b610532600480360381019061052d9190612903565b611a3c565b60405161053f9190612804565b60405180910390f35b610562600480360381019061055d91906127be565b611a57565b005b61056c611ada565b6040516105799190612804565b60405180910390f35b600073ffffffffffffffffffffffffffffffffffffffff168173ffffffffffffffffffffffffffffffffffffffff16036105f1576040517f08c379a00000000000000000000000000000000000000000000000000000000081526004016105e890612b4f565b60405180910390fd5b600073ffffffffffffffffffffffffffffffffffffffff16601860003373ffffffffffffffffffffffffffffffffffffffff1673ffffffffffffffffffffffffffffffffffffffff16815260200190815260200160002060030160009054906101000a900473ffffffffffffffffffffffffffffffffffffffff1673ffffffffffffffffffffffffffffffffffffffff16146106c2576040517f08c379a00000000000000000000000000000000000000000000000000000000081526004016106b990612bbb565b60405180910390fd5b6000601860003373ffffffffffffffffffffffffffffffffffffffff1673ffffffffffffffffffffffffffffffffffffffff1681526020019081526020016000206000015414610747576040517f08c379a000000000000000000000000000000000000000000000000000000000815260040161073e90612c27565b60405180910390fd5b61075081611ae0565b61078f576040517f08c379a000000000000000000000000000000000000000000000000000000000815260040161078690612b4f565b60405180910390fd5b6107993382611b6b565b156107d9576040517f08c379a00000000000000000000000000000000000000000000000000000000081526004016107d090612c93565b60405180910390fd5b80601860003373ffffffffffffffffffffffffffffffffffffffff1673ffffffffffffffffffffffffffffffffffffffff16815260200190815260200160002060030160006101000a81548173ffffffffffffffffffffffffffffffffffffffff021916908373ffffffffffffffffffffffffffffffffffffffff160217905550601860008273ffffffffffffffffffffffffffffffffffffffff1673ffffffffffffffffffffffffffffffffffffffff16815260200190815260200160002060060160008154809291906108ad90612ce2565b91905055508073ffffffffffffffffffffffffffffffffffffffff163373ffffffffffffffffffffffffffffffffffffffff167ffd43abdc1b330cff3a3b1571cb7ed7f3040abee39dcefeba0df4cf342fb8203060405160405180910390a350565b60145481565b61091d611c79565b80601660008473ffffffffffffffffffffffffffffffffffffffff1673ffffffffffffffffffffffffffffffffffffffff16815260200190815260200160002060006101000a81548160ff0219169083151502179055505050565b610980611c79565b600f82106109c3576040517f08c379a00000000000000000000000000000000000000000000000000000000081526004016109ba90612d76565b60405180910390fd5b6127108110610a07576040517f08c379a00000000000000000000000000000000000000000000000000000000081526004016109fe90612de2565b60405180910390fd5b80600383600f8110610a1c57610a1b612e02565b5b01819055505050565b610a2e33611cf7565b610a3733610fb0565b15610a77576040517f08c379a0000000000000000000000000000000000000000000000000000000008152600401610a6e90612ea3565b60405180910390fd5b6000601860003373ffffffffffffffffffffffffffffffffffffffff1673ffffffffffffffffffffffffffffffffffffffff1681526020019081526020016000209050600081600201548260010154610ad09190612ec3565b90506015548111610b16576040517f08c379a0000000000000000000000000000000000000000000000000000000008152600401610b0d90612f69565b60405180910390fd5b6000819050600060155414610b415760155482610b339190612fb8565b82610b3e9190612ec3565b90505b80836002016000828254610b559190612fe9565b92505081905550610ba93382600160009054906101000a900473ffffffffffffffffffffffffffffffffffffffff1673ffffffffffffffffffffffffffffffffffffffff16611da19092919063ffffffff16565b3373ffffffffffffffffffffffffffffffffffffffff167f106f923f993c2149d49b4255ff723acafa1f2d94393f561d3eda32ae348f724182604051610bef9190612804565b60405180910390a2505050565b610c04611c79565b600f811115610c48576040517f08c379a0000000000000000000000000000000000000000000000000000000008152600401610c3f90613069565b60405180910390fd5b8060138190555050565b610c5a611c79565b8060148190555050565b610c6c611c79565b610d5433600160009054906101000a900473ffffffffffffffffffffffffffffffffffffffff1673ffffffffffffffffffffffffffffffffffffffff166370a08231306040518263ffffffff1660e01b8152600401610ccb919061293f565b602060405180830381865afa158015610ce8573d6000803e3d6000fd5b505050506040513d601f19601f82011682018060405250810190610d0c919061309e565b600160009054906101000a900473ffffffffffffffffffffffffffffffffffffffff1673ffffffffffffffffffffffffffffffffffffffff16611da19092919063ffffffff16565b565b600260009054906101000a900473ffffffffffffffffffffffffffffffffffffffff1681565b6000806000806000601860008773ffffffffffffffffffffffffffffffffffffffff1673ffffffffffffffffffffffffffffffffffffffff1681526020019081526020016000206040518060e00160405290816000820154815260200160018201548152602001600282015481526020016003820160009054906101000a900473ffffffffffffffffffffffffffffffffffffffff1673ffffffffffffffffffffffffffffffffffffffff1673ffffffffffffffffffffffffffffffffffffffff168152602001600482015481526020016005820154815260200160068201548152505090506000610e6d87611e27565b905081604001518260200151610e839190612ec3565b81610e8e9190612fe9565b8260400151828460200151610ea39190612fe9565b60028560000151610eb491906130cb565b955095509550955050509193509193565b610ecd611c79565b610ed76000611fd7565b565b600160009054906101000a900473ffffffffffffffffffffffffffffffffffffffff1681565b60176020528060005260406000206000915054906101000a900460ff1681565b60008060009054906101000a900473ffffffffffffffffffffffffffffffffffffffff16905090565b610f50611c79565b6127108110610f94576040517f08c379a0000000000000000000000000000000000000000000000000000000008152600401610f8b90612de2565b60405180910390fd5b8060128190555050565b610fa6611c79565b8060158190555050565b6000601660008373ffffffffffffffffffffffffffffffffffffffff1673ffffffffffffffffffffffffffffffffffffffff16815260200190815260200160002060009054906101000a900460ff169050919050565b681b1ae4d6e2ef500000811015611052576040517f08c379a000000000000000000000000000000000000000000000000000000000815260040161104990613159565b60405180910390fd5b6000601860003373ffffffffffffffffffffffffffffffffffffffff1673ffffffffffffffffffffffffffffffffffffffff168152602001908152602001600020905061109e33611cf7565b818160000160008282546110b29190612fe9565b9250508190555042816004018190555062015180426110d19190612fe9565b816005018190555061114a33600260009054906101000a900473ffffffffffffffffffffffffffffffffffffffff1684600160009054906101000a900473ffffffffffffffffffffffffffffffffffffffff1673ffffffffffffffffffffffffffffffffffffffff1661209b909392919063ffffffff16565b6111543383612124565b3373ffffffffffffffffffffffffffffffffffffffff167f9e71bc8eea02a63969f509818f2dafb9254532904319f9dbda79b67bd34a5f3d8360405161119a9190612804565b60405180910390a25050565b60186020528060005260406000206000915090508060000154908060010154908060020154908060030160009054906101000a900473ffffffffffffffffffffffffffffffffffffffff16908060040154908060050154908060060154905087565b600080601860008473ffffffffffffffffffffffffffffffffffffffff1673ffffffffffffffffffffffffffffffffffffffff1681526020019081526020016000206040518060e00160405290816000820154815260200160018201548152602001600282015481526020016003820160009054906101000a900473ffffffffffffffffffffffffffffffffffffffff1673ffffffffffffffffffffffffffffffffffffffff1673ffffffffffffffffffffffffffffffffffffffff1681526020016004820154815260200160058201548152602001600682015481525050905060006112f484611e27565b905060008260400151836020015161130c9190612ec3565b90506000818361131c9190612fe9565b905060006002856000015161133191906130cb565b9050808286602001516113449190612fe9565b111561135d5784602001518161135a9190612ec3565b91505b8195505050505050919050565b60155481565b611378611c79565b6000601860008473ffffffffffffffffffffffffffffffffffffffff1673ffffffffffffffffffffffffffffffffffffffff1681526020019081526020016000209050681b1ae4d6e2ef500000821015611407576040517f08c379a00000000000000000000000000000000000000000000000000000000081526004016113fe90613159565b60405180910390fd5b61141083611cf7565b818160000160008282546114249190612fe9565b9250508190555042816004018190555062015180426114439190612fe9565b81600501819055506114bc33600260009054906101000a900473ffffffffffffffffffffffffffffffffffffffff1684600160009054906101000a900473ffffffffffffffffffffffffffffffffffffffff1673ffffffffffffffffffffffffffffffffffffffff1661209b909392919063ffffffff16565b6114c68383612124565b8273ffffffffffffffffffffffffffffffffffffffff167f9e71bc8eea02a63969f509818f2dafb9254532904319f9dbda79b67bd34a5f3d8360405161150c9190612804565b60405180910390a2505050565b60125481565b61156e333083600160009054906101000a900473ffffffffffffffffffffffffffffffffffffffff1673ffffffffffffffffffffffffffffffffffffffff1661209b909392919063ffffffff16565b50565b681b1ae4d6e2ef50000081565b601760003373ffffffffffffffffffffffffffffffffffffffff1673ffffffffffffffffffffffffffffffffffffffff16815260200190815260200160002060009054906101000a900460ff161561160b576040517f08c379a0000000000000000000000000000000000000000000000000000000008152600401611602906131c5565b60405180910390fd5b600073ffffffffffffffffffffffffffffffffffffffff168173ffffffffffffffffffffffffffffffffffffffff160361167a576040517f08c379a000000000000000000000000000000000000000000000000000000000815260040161167190612b4f565b60405180910390fd5b600073ffffffffffffffffffffffffffffffffffffffff16601860003373ffffffffffffffffffffffffffffffffffffffff1673ffffffffffffffffffffffffffffffffffffffff16815260200190815260200160002060030160009054906101000a900473ffffffffffffffffffffffffffffffffffffffff1673ffffffffffffffffffffffffffffffffffffffff161461174b576040517f08c379a000000000000000000000000000000000000000000000000000000000815260040161174290612bbb565b60405180910390fd5b6000601860003373ffffffffffffffffffffffffffffffffffffffff1673ffffffffffffffffffffffffffffffffffffffff16815260200190815260200160002060000154146117d0576040517f08c379a00000000000000000000000000000000000000000000000000000000081526004016117c790612c27565b60405180910390fd5b6117d981611ae0565b611818576040517f08c379a000000000000000000000000000000000000000000000000000000000815260040161180f90612b4f565b60405180910390fd5b6118223382611b6b565b15611862576040517f08c379a000000000000000000000000000000000000000000000000000000000815260040161185990612c93565b60405180910390fd5b80601860003373ffffffffffffffffffffffffffffffffffffffff1673ffffffffffffffffffffffffffffffffffffffff16815260200190815260200160002060030160006101000a81548173ffffffffffffffffffffffffffffffffffffffff021916908373ffffffffffffffffffffffffffffffffffffffff160217905550601860008273ffffffffffffffffffffffffffffffffffffffff1673ffffffffffffffffffffffffffffffffffffffff168152602001908152602001600020600601600081548092919061193690612ce2565b91905055506001601760003373ffffffffffffffffffffffffffffffffffffffff1673ffffffffffffffffffffffffffffffffffffffff16815260200190815260200160002060006101000a81548160ff0219169083151502179055508073ffffffffffffffffffffffffffffffffffffffff163373ffffffffffffffffffffffffffffffffffffffff167ffd43abdc1b330cff3a3b1571cb7ed7f3040abee39dcefeba0df4cf342fb8203060405160405180910390a350565b6119f8611c79565b80600260006101000a81548173ffffffffffffffffffffffffffffffffffffffff021916908373ffffffffffffffffffffffffffffffffffffffff16021790555050565b600381600f8110611a4c57600080fd5b016000915090505481565b611a5f611c79565b600073ffffffffffffffffffffffffffffffffffffffff168173ffffffffffffffffffffffffffffffffffffffff1603611ace576040517f08c379a0000000000000000000000000000000000000000000000000000000008152600401611ac590613257565b60405180910390fd5b611ad781611fd7565b50565b60135481565b600080601860008473ffffffffffffffffffffffffffffffffffffffff1673ffffffffffffffffffffffffffffffffffffffff168152602001908152602001600020600001541180611b645750611b35610f1f565b73ffffffffffffffffffffffffffffffffffffffff168273ffffffffffffffffffffffffffffffffffffffff16145b9050919050565b60008082905060005b600073ffffffffffffffffffffffffffffffffffffffff168273ffffffffffffffffffffffffffffffffffffffff1614158015611bb15750601081105b15611c6c578473ffffffffffffffffffffffffffffffffffffffff168273ffffffffffffffffffffffffffffffffffffffff1603611bf457600192505050611c73565b601860008373ffffffffffffffffffffffffffffffffffffffff1673ffffffffffffffffffffffffffffffffffffffff16815260200190815260200160002060030160009054906101000a900473ffffffffffffffffffffffffffffffffffffffff1691508080611c6490612ce2565b915050611b74565b6000925050505b92915050565b611c816124d6565b73ffffffffffffffffffffffffffffffffffffffff16611c9f610f1f565b73ffffffffffffffffffffffffffffffffffffffff1614611cf5576040517f08c379a0000000000000000000000000000000000000000000000000000000008152600401611cec906132c3565b60405180910390fd5b565b6000601860008373ffffffffffffffffffffffffffffffffffffffff1673ffffffffffffffffffffffffffffffffffffffff1681526020019081526020016000209050600081600501541480611d51575080600501544211155b15611d5c5750611d9e565b6000611d6783611e27565b9050611d7283610fb0565b611d925780826001016000828254611d8a9190612fe9565b925050819055505b42826005018190555050505b50565b611e228363a9059cbb60e01b8484604051602401611dc09291906132e3565b604051602081830303815290604052907bffffffffffffffffffffffffffffffffffffffffffffffffffffffff19166020820180517bffffffffffffffffffffffffffffffffffffffffffffffffffffffff83818316178352505050506124de565b505050565b600080601860008473ffffffffffffffffffffffffffffffffffffffff1673ffffffffffffffffffffffffffffffffffffffff1681526020019081526020016000206040518060e00160405290816000820154815260200160018201548152602001600282015481526020016003820160009054906101000a900473ffffffffffffffffffffffffffffffffffffffff1673ffffffffffffffffffffffffffffffffffffffff1673ffffffffffffffffffffffffffffffffffffffff168152602001600482015481526020016005820154815260200160068201548152505090506000816000015103611f1e576000915050611fd2565b600060028260000151611f3191906130cb565b905080826020015110611f4957600092505050611fd2565b8160a00151421015611f6057600092505050611fd2565b600063337f98008360a0015142611f779190612ec3565b6012548560000151611f8991906130cb565b611f9391906130cb565b611f9d919061330c565b905081818460200151611fb09190612fe9565b11611fbb5780611fcc565b826020015182611fcb9190612ec3565b5b93505050505b919050565b60008060009054906101000a900473ffffffffffffffffffffffffffffffffffffffff169050816000806101000a81548173ffffffffffffffffffffffffffffffffffffffff021916908373ffffffffffffffffffffffffffffffffffffffff1602179055508173ffffffffffffffffffffffffffffffffffffffff168173ffffffffffffffffffffffffffffffffffffffff167f8be0079c531659141344cd1fd0a4f28419497f9722a3daafe3b4186f6b6457e060405160405180910390a35050565b61211e846323b872dd60e01b8585856040516024016120bc9392919061333d565b604051602081830303815290604052907bffffffffffffffffffffffffffffffffffffffffffffffffffffffff19166020820180517bffffffffffffffffffffffffffffffffffffffffffffffffffffffff83818316178352505050506124de565b50505050565b6000601860008473ffffffffffffffffffffffffffffffffffffffff1673ffffffffffffffffffffffffffffffffffffffff16815260200190815260200160002060030160009054906101000a900473ffffffffffffffffffffffffffffffffffffffff16905060005b6013548110156124d057600073ffffffffffffffffffffffffffffffffffffffff168273ffffffffffffffffffffffffffffffffffffffff1603156124d0576000811180156122205750601454601860008473ffffffffffffffffffffffffffffffffffffffff1673ffffffffffffffffffffffffffffffffffffffff16815260200190815260200160002060060154105b80612230575061222f82610fb0565b5b1561229f57601860008373ffffffffffffffffffffffffffffffffffffffff1673ffffffffffffffffffffffffffffffffffffffff16815260200190815260200160002060030160009054906101000a900473ffffffffffffffffffffffffffffffffffffffff1691506124c3565b6000612710600383600f81106122b8576122b7612e02565b5b0154856122c591906130cb565b6122cf919061330c565b90506000601860008573ffffffffffffffffffffffffffffffffffffffff1673ffffffffffffffffffffffffffffffffffffffff168152602001908152602001600020600101546002601860008773ffffffffffffffffffffffffffffffffffffffff1673ffffffffffffffffffffffffffffffffffffffff1681526020019081526020016000206000015461236591906130cb565b61236f9190612ec3565b9050600081111561245b576000818311612389578261238b565b815b905080601860008773ffffffffffffffffffffffffffffffffffffffff1673ffffffffffffffffffffffffffffffffffffffff16815260200190815260200160002060010160008282546123df9190612fe9565b925050819055508673ffffffffffffffffffffffffffffffffffffffff168573ffffffffffffffffffffffffffffffffffffffff167fbd7e5be34537a425747cf06d84eca4d59c865e2002b7d5f36f14558bdc5ae8cd6001876124429190612fe9565b84604051612451929190613374565b60405180910390a3505b601860008573ffffffffffffffffffffffffffffffffffffffff1673ffffffffffffffffffffffffffffffffffffffff16815260200190815260200160002060030160009054906101000a900473ffffffffffffffffffffffffffffffffffffffff16935050505b808060010191505061218e565b50505050565b600033905090565b6000612540826040518060400160405280602081526020017f5361666545524332303a206c6f772d6c6576656c2063616c6c206661696c65648152508573ffffffffffffffffffffffffffffffffffffffff166125a59092919063ffffffff16565b90506000815111156125a0578080602001905181019061256091906133b2565b61259f576040517f08c379a000000000000000000000000000000000000000000000000000000000815260040161259690613451565b60405180910390fd5b5b505050565b60606125b484846000856125bd565b90509392505050565b606082471015612602576040517f08c379a00000000000000000000000000000000000000000000000000000000081526004016125f9906134e3565b60405180910390fd5b61260b856126d1565b61264a576040517f08c379a00000000000000000000000000000000000000000000000000000000081526004016126419061354f565b60405180910390fd5b6000808673ffffffffffffffffffffffffffffffffffffffff16858760405161267391906135e0565b60006040518083038185875af1925050503d80600081146126b0576040519150601f19603f3d011682016040523d82523d6000602084013e6126b5565b606091505b50915091506126c58282866126f4565b92505050949350505050565b6000808273ffffffffffffffffffffffffffffffffffffffff163b119050919050565b6060831561270457829050612754565b6000835111156127175782518084602001fd5b816040517f08c379a000000000000000000000000000000000000000000000000000000000815260040161274b919061364c565b60405180910390fd5b9392505050565b600080fd5b600073ffffffffffffffffffffffffffffffffffffffff82169050919050565b600061278b82612760565b9050919050565b61279b81612780565b81146127a657600080fd5b50565b6000813590506127b881612792565b92915050565b6000602082840312156127d4576127d361275b565b5b60006127e2848285016127a9565b91505092915050565b6000819050919050565b6127fe816127eb565b82525050565b600060208201905061281960008301846127f5565b92915050565b60008115159050919050565b6128348161281f565b811461283f57600080fd5b50565b6000813590506128518161282b565b92915050565b6000806040838503121561286e5761286d61275b565b5b600061287c858286016127a9565b925050602061288d85828601612842565b9150509250929050565b6128a0816127eb565b81146128ab57600080fd5b50565b6000813590506128bd81612897565b92915050565b600080604083850312156128da576128d961275b565b5b60006128e8858286016128ae565b92505060206128f9858286016128ae565b9150509250929050565b6000602082840312156129195761291861275b565b5b6000612927848285016128ae565b91505092915050565b61293981612780565b82525050565b60006020820190506129546000830184612930565b92915050565b600060808201905061296f60008301876127f5565b61297c60208301866127f5565b61298960408301856127f5565b61299660608301846127f5565b95945050505050565b6000819050919050565b60006129c46129bf6129ba84612760565b61299f565b612760565b9050919050565b60006129d6826129a9565b9050919050565b60006129e8826129cb565b9050919050565b6129f8816129dd565b82525050565b6000602082019050612a1360008301846129ef565b92915050565b612a228161281f565b82525050565b6000602082019050612a3d6000830184612a19565b92915050565b600060e082019050612a58600083018a6127f5565b612a6560208301896127f5565b612a7260408301886127f5565b612a7f6060830187612930565b612a8c60808301866127f5565b612a9960a08301856127f5565b612aa660c08301846127f5565b98975050505050505050565b60008060408385031215612ac957612ac861275b565b5b6000612ad7858286016127a9565b9250506020612ae8858286016128ae565b9150509250929050565b600082825260208201905092915050565b7f496e76616c696420726566657272657200000000000000000000000000000000600082015250565b6000612b39601083612af2565b9150612b4482612b03565b602082019050919050565b60006020820190508181036000830152612b6881612b2c565b9050919050565b7f416c726561647920626f756e6400000000000000000000000000000000000000600082015250565b6000612ba5600d83612af2565b9150612bb082612b6f565b602082019050919050565b60006020820190508181036000830152612bd481612b98565b9050919050565b7f416c7265616479207374616b6564000000000000000000000000000000000000600082015250565b6000612c11600e83612af2565b9150612c1c82612bdb565b602082019050919050565b60006020820190508181036000830152612c4081612c04565b9050919050565b7f43697263756c6172207265666572656e63650000000000000000000000000000600082015250565b6000612c7d601283612af2565b9150612c8882612c47565b602082019050919050565b60006020820190508181036000830152612cac81612c70565b9050919050565b7f4e487b7100000000000000000000000000000000000000000000000000000000600052601160045260246000fd5b6000612ced826127eb565b91507fffffffffffffffffffffffffffffffffffffffffffffffffffffffffffffffff8203612d1f57612d1e612cb3565b5b600182019050919050565b7f696e76616c696420696e64657800000000000000000000000000000000000000600082015250565b6000612d60600d83612af2565b9150612d6b82612d2a565b602082019050919050565b60006020820190508181036000830152612d8f81612d53565b9050919050565b7f726174652063616e2774206c6172676572207468616e20313030000000000000600082015250565b6000612dcc601a83612af2565b9150612dd782612d96565b602082019050919050565b60006020820190508181036000830152612dfb81612dbf565b9050919050565b7f4e487b7100000000000000000000000000000000000000000000000000000000600052603260045260246000fd5b7f596f752061726520696e20626c61636b6c6973742c63616e277420636c61696d60008201527f526577617264732e000000000000000000000000000000000000000000000000602082015250565b6000612e8d602883612af2565b9150612e9882612e31565b604082019050919050565b60006020820190508181036000830152612ebc81612e80565b9050919050565b6000612ece826127eb565b9150612ed9836127eb565b9250828203905081811115612ef157612ef0612cb3565b5b92915050565b7f436c61696d20616d6f756e742063616e2774203c206d696e436c61696d416d6f60008201527f756e742100000000000000000000000000000000000000000000000000000000602082015250565b6000612f53602483612af2565b9150612f5e82612ef7565b604082019050919050565b60006020820190508181036000830152612f8281612f46565b9050919050565b7f4e487b7100000000000000000000000000000000000000000000000000000000600052601260045260246000fd5b6000612fc3826127eb565b9150612fce836127eb565b925082612fde57612fdd612f89565b5b828206905092915050565b6000612ff4826127eb565b9150612fff836127eb565b925082820190508082111561301757613016612cb3565b5b92915050565b7f67656e65726174696f6e2063616e2774203e2031350000000000000000000000600082015250565b6000613053601583612af2565b915061305e8261301d565b602082019050919050565b6000602082019050818103600083015261308281613046565b9050919050565b60008151905061309881612897565b92915050565b6000602082840312156130b4576130b361275b565b5b60006130c284828501613089565b91505092915050565b60006130d6826127eb565b91506130e1836127eb565b92508282026130ef816127eb565b9150828204841483151761310657613105612cb3565b5b5092915050565b7f42656c6f77206d696e696d756d207374616b6500000000000000000000000000600082015250565b6000613143601383612af2565b915061314e8261310d565b602082019050919050565b6000602082019050818103600083015261317281613136565b9050919050565b7f557365722063616e206f6e6c7920757064617465206f6e636500000000000000600082015250565b60006131af601983612af2565b91506131ba82613179565b602082019050919050565b600060208201905081810360008301526131de816131a2565b9050919050565b7f4f776e61626c653a206e6577206f776e657220697320746865207a65726f206160008201527f6464726573730000000000000000000000000000000000000000000000000000602082015250565b6000613241602683612af2565b915061324c826131e5565b604082019050919050565b6000602082019050818103600083015261327081613234565b9050919050565b7f4f776e61626c653a2063616c6c6572206973206e6f7420746865206f776e6572600082015250565b60006132ad602083612af2565b91506132b882613277565b602082019050919050565b600060208201905081810360008301526132dc816132a0565b9050919050565b60006040820190506132f86000830185612930565b61330560208301846127f5565b9392505050565b6000613317826127eb565b9150613322836127eb565b92508261333257613331612f89565b5b828204905092915050565b60006060820190506133526000830186612930565b61335f6020830185612930565b61336c60408301846127f5565b949350505050565b600060408201905061338960008301856127f5565b61339660208301846127f5565b9392505050565b6000815190506133ac8161282b565b92915050565b6000602082840312156133c8576133c761275b565b5b60006133d68482850161339d565b91505092915050565b7f5361666545524332303a204552433230206f7065726174696f6e20646964206e60008201527f6f74207375636365656400000000000000000000000000000000000000000000602082015250565b600061343b602a83612af2565b9150613446826133df565b604082019050919050565b6000602082019050818103600083015261346a8161342e565b9050919050565b7f416464726573733a20696e73756666696369656e742062616c616e636520666f60008201527f722063616c6c0000000000000000000000000000000000000000000000000000602082015250565b60006134cd602683612af2565b91506134d882613471565b604082019050919050565b600060208201905081810360008301526134fc816134c0565b9050919050565b7f416464726573733a2063616c6c20746f206e6f6e2d636f6e7472616374000000600082015250565b6000613539601d83612af2565b915061354482613503565b602082019050919050565b600060208201905081810360008301526135688161352c565b9050919050565b600081519050919050565b600081905092915050565b60005b838110156135a3578082015181840152602081019050613588565b60008484015250505050565b60006135ba8261356f565b6135c4818561357a565b93506135d4818560208601613585565b80840191505092915050565b60006135ec82846135af565b915081905092915050565b600081519050919050565b6000601f19601f8301169050919050565b600061361e826135f7565b6136288185612af2565b9350613638818560208601613585565b61364181613602565b840191505092915050565b600060208201905081810360008301526136668184613613565b90509291505056fea26469706673582212201393c7a77cd507b56844edeb3edec9387d13a4cb53e23733fa1a74e7606f2e4264736f6c63430008180033",
  "linkReferences": {},
  "deployedLinkReferences": {}
}